:020000040800F2
:10000000F85000208102000807360008FD2E000885
:1000100005360008F9090008693F000800000000E3
:10002000000000000000000000000000C101000806
:100030006D0B0008000000001D0200087D3800085C
:100040009B0200089B0200089B0200089B0200081C
:100050009B0200089B0200089B0200089B0200080C
:100060009B0200089B0200089B0200089B020008FC
:100070009B0200089B0200089B0200089B020008EC
:100080009B0200089B0200089B020008490A000826
:100090003D0A00089B0200089B0200089B02000822
:1000A0009B0200089B0200089B0200089B020008BC
:1000B0009B0200089B0200089B0200089B020008AC
:1000C0009B0200089B0200089B0200089B0200089C
:1000D0009B020008453F0008513F00089B020008B2
:1000E0009B0200089B0200089B0200089B0200087C
:1000F0004D3900089B0200089B0200089B02000883
:100100009B0200089B0200089B0200089B0200085B
:100110009B0200089B0200089B0200089B0200084B
:100120009B0200089B020008BD0A00089B02000811
:100130009B0200089B0200089B020008A50A000819
:10014000990A00089B0200089B0200089B02000815
:100150009B0200089B0200089B0200085D3F00080C
:100160009B0200089B0200089B0200089B020008FB
:100170009B0200089B0200089B0200080000000090
:100180009B0200089B0200089B0200089B020008DB
:100190009B0200089B0200089B0200089B020008CB
:1001A00000000000000000009B020008DFF80CD0F7
:1001B00000F0D6FB00480047B16E0008F850002060
:1001C0002C4B19680868B0E8F04F80F30988BFF33A
:1001D0006F8F4FF0000080F311887047000000001F
:1001E00008480068006880F308884FF0000080F33A
:1001F000148862B661B6BFF34F8FBFF36F8F00DF15
:1002000000BF00BF08ED00E0DFF80C00016841F41A
:1002100070010160704700BF88ED00E0EFF30980D6
:10022000BFF36F8F134B1A681EF0100F08BF20ED3D
:10023000108A20E9F04F106009B44FF0500080F3AD
:100240001188BFF34F8FBFF36F8F07F00FFD4FF093
:10025000000080F3118809BC19680868B0E8F04F05
:100260001EF0100F08BFB0EC108A80F30988BFF3AE
:100270006F8F704724000020EFF305807047000067
:100280000648804706480047FEE7FEE7FEE7FEE730
:10029000FEE7FEE7FEE7FEE7FEE7FEE7313900088E
:1002A000AD0100082DE9F05F0546002092469B460F
:1002B00088460646814640241BE02846414647467C
:1002C000224600F02AF953465A46C01A914110D3EB
:1002D00011461846224600F011F92D1A67EB010865
:1002E0004F4622460120002100F008F917EB0009D3
:1002F0004E41201EA4F10104DFDC484631462A4667
:100300004346BDE8F09F40EA01039B0703D009E0A4
:1003100008C9121F08C0042AFAD203E011F8013BF1
:1003200000F8013B521EF9D27047D2B201E000F84A
:10033000012B491EFBD270470022F6E710B5134689
:100340000A4604461946FFF7F0FF204610BD2DE986
:10035000FE4F81EA030404F0004421F000410094C0
:100360004FF0000B23F0004350EA01045ED052EA44
:1003700003045BD0C3F30A54C1F30A552C44A4F21E
:10038000F3340194A0FB0254C1F3130141F4801132
:10039000C3F3130343F4801301FB024400FB034E39
:1003A000840A970A44EA815447EA8357A4FB076802
:1003B00002958D0A05FB07854FEA932C04FB0C542C
:1003C0002705029D4FEA065847EA1637B5EB0805A0
:1003D0006EEB070C870E920E47EA811742EA8312F2
:1003E000A7FB0201B6EB0B0164EB00042B0D43EA03
:1003F0000C335E1844EB1C50DA465146E7FB020111
:10040000C5F313044FEA0B3343EA14534FEA0432A3
:10041000019C43EA0603A4F10C040294009CCDE97C
:1004200000B400F0D0F803B0BDE8F08F0020014622
:10043000F9E70EB5C10F80EAE0700844CA07002151
:1004400040F233438DE80E000A460B4600F0BBF83D
:1004500003B000BD0EB540F2334102910021CDE959
:1004600000110A460B4600F0AEF803B000BD00F0E4
:10047000004230F000400AD0C10D01F56071C0F3B8
:10048000160042EA0151C20840071143704700209C
:100490000146704730B5041E71F1000404DB4FF0D3
:1004A0000044404264EB0101141E73F1000405DBBB
:1004B0001C464FF00043524263EB0403994208BFCD
:1004C000904230BD01F0004330B421F0004150EAC9
:1004D000010206D00A0DA2F56072C1F31301002AD1
:1004E00002DC30BC00207047440F44EAC104C10064
:1004F000E01830BC00EBC25000F01FB8202A04DB2B
:10050000203A00FA02F1002070479140C2F1200326
:1005100020FA03F3194390407047202A04DB203A65
:1005200021FA02F00021704721FA02F3D040C2F113
:10053000200291400843194670470029A8BF704720
:10054000401C490008BF20F00100704710B4B0FA09
:1005500080FC00FA0CF050EA010404BF10BC7047A4
:1005600049B1CCF1200421FA04F411FA0CF118BFBE
:10057000012121430843A3EB0C01CB1D4FEA00618D
:100580004FEA102042BF002010BC704700EBC35060
:1005900010440029A4BF10BC7047401C490008BF8C
:1005A00020F0010010BC704710B5141E73F1000458
:1005B00008DA401C41F1000192185B411A4301D155
:1005C00020F0010010BD2DE9F04D92469B4611B17F
:1005D000B1FA81F202E0B0FA80F220329046FFF7E1
:1005E0008DFF04460F4640EA0A0041EA0B015346DC
:1005F0005A46084313D0114653EA010019D0C8F1F6
:1006000040025046FFF789FF05460E4650465946C0
:100610004246FFF773FF084305D0012004E020465F
:100620003946BDE8F08D0020054346EAE0762C43CC
:1006300037430A986305E40AA0EB08000022FD0A8C
:1006400044EA47540A3002D500200146E9E7010593
:1006500010196941DDE9084500196941BDE8F04D0F
:10066000A2E72DE9FE4F804681EA0300C00F0C4649
:10067000009021F0004123F00045B8EB0200A941B1
:1006800005D24046214690461C460B46024623F0C2
:100690000040104347D0270DC7F30A00C3F30A51A7
:1006A0000290401A019040286BDAC3F3130040F423
:1006B000801B0098924620B10023D2EB030A63EB23
:1006C0000B0B01985946C0F140025046FFF716FF48
:1006D00006460D4650465946019A00F053F910EB74
:1006E00008006141002487EA115284EAE7731A4343
:1006F00040D0009A62B3019A012A4FEA075215DCF2
:10070000001B61EB02014FF0004202EA0752CDE903
:100710000042001C41F5801132462B46FFF753FF83
:1007200003B0BDE8F08F40462146F9E7001B61EBBE
:100730000201001C41F5801300185B412018A2F54E
:10074000001747EB030140EAD570B6196D4111E07F
:100750006D084FEA360645EAC0754FEA0752001B9E
:1007600061EB0201001C41F5801149084FEA30009D
:100770000019514132462B4603B0BDE8F04FFFF758
:1007800013BF0098012240000023D0EB020263EB6C
:10079000E073009821464FEAE074B8EB000061EB8B
:1007A0000401E9E783F000435BE781F0004158E78B
:1007B0002DE9F04D81EA030404F0004B21F00045DF
:1007C00014464FF0000A23F0004150EA050220D001
:1007D00054EA01021DD0C5F30A570246C5F31303BC
:1007E000C1F31300C1F30A5640F4801543F480139B
:1007F000A7EB0608101BD64608F2FD3873EB050080
:1008000002D308F1010801E092185B41B8F1000F32
:1008100003DA00200146BDE8F08D00204FF480117E
:10082000064684460EE0171B73EB050705D3121B23
:1008300063EB050306434CEA010C49084FEA30001C
:1008400092185B4150EA0107EDD152EA030012D041
:1008500082EA040083EA0501084305D0101BAB417E
:1008600006D20122002306E000224FF0004302E0FE
:100870006FF0010253101AEB06004CEB085110EB1D
:100880000A0041EB0B01BDE8F04DFFF78DBE70B5DE
:1008900021F0004303430CD0C1F30A550024D5EBEB
:1008A000040564EB0403D617AD1AB34102DB002044
:1008B000014670BD201841EB025170BD2DE9F04D8D
:1008C00000231A461B1A8A4103DB00200146BDE8BB
:1008D000F08DC1F30A52C1F3130141F480154FF0BA
:1008E000000BD10702D100186D41521E00270446AB
:1008F00040F2FF11384601EB620A3E46804602464E
:1009000000204FF48011FFF708FEC2197141BB1897
:1009100046EB0100B4EB030C75EB000C04D3E41AB6
:1009200065EB000517460E46241908F101006D41DC
:1009300080463428E3DDF91946EB0600091BA8417F
:1009400003D24FF0FF32134601E0002213461BEBA7
:10095000070046EB0A51BDE8F04DFFF725BE000049
:10096000064C074D06E0E06840F0010394E80700FC
:1009700098471034AC42F6D3FFF71CFC38810008CE
:1009800058810008202A06DBCB17203A41FA02F0F2
:1009900043EAE07306E041FA02F3D040C2F12002DC
:1009A000914008431946704710B504F075FA02F0FB
:1009B0007FFE0F480F4C90F9000078B101280FD04E
:1009C000022814D100220821204601F01AF8012241
:1009D0002046BDE81040102101F013B8002200E0CD
:1009E00001220821204601F00CF80022F0E710BD9A
:1009F000E800002000080240FEE7000000B58BB0D0
:100A000000200121CDE9060147F6FE720590CDE9EF
:100A100000200290039004900E20CDE90810694652
:100A2000054800F02BF9044800F0C6FC02210248FA
:100A300000F0ADF80BB000BD50030020014800F0FD
:100A400018BA000050030020014800F012BA00005C
:100A50005003002000B58BB04FF6FF7301220093C6
:100A60000E2100200792CDE905105B10CDE9013081
:100A700003900490CDE908216946064800F0FEF88D
:100A8000044800F099FC0221024800F080F80BB005
:100A900000BD000078030020014800F0EAB9000022
:100AA00078030020014800F0E4B90000780300203A
:100AB00004F010FA012006F047FAF9E7014800F0C7
:100AC00009BD00009805002001681823CAB2103A39
:100AD000B2FBF3F2054B6FF30901032A9B5CC3657C
:100AE00000D9091D81650846704700006C80000828
:100AF00010B5014600208B698A6A4FF0C07453B16B
:100B0000B3F5005F15D072B1012A0CD0022A0AD0C9
:100B1000032A09D104E01AB1012A06D0022A03D11E
:100B2000C96AC90100D5012010BDC96AA142FAD025
:100B300010BD002AF7D0012AF2D0022AF3D0032AEE
:100B4000F3D010BD30B50468256825F480252560F4
:100B5000046863608368402B036803D09960006871
:100B6000C26030BD9A600068C16030BD7047704798
:100B700010B502F0CBF906F099FEBDE8104004F084
:100B800007BDFFF7F5FF012006F0DEF9F9E790F861
:100B90002020012A07D0022A05D0416A41F4802191
:100BA000416201207047006842690A4342610020A7
:100BB0007047F0B590F820500468A468012D05D066
:100BC000022D03D0416A41F4802153E014F0406FBC
:100BD00001D1E5004BD5C4F30164022C03D9416A6D
:100BE00041F4000146E00125A5401D608D684FF4E9
:100BF000C0739DB1CE6835434E6845EAC6050668A8
:100C000003EB0417F5514FF4C275076805EB0415A3
:100C10000E697E51097D012905D009E00E88CD6855
:100C200045EA4655EBE701684E5946F480764E5149
:100C30001179D2F805504FF4C67641EA05250168CE
:100C400006EB04168D511178D2F801204FF4C475CB
:100C500041EA0221026805EB04155151006803EBDB
:100C60000411425842F0010242500020F0BD416A96
:100C700041F4001141620120F0BD000010B590F870
:100C80002020012A07D0022A05D0416A41F48021A0
:100C90004162012010BD3B48D0F8002242F0010221
:100CA000C0F80022D0F8002222F47C52C0F80022C2
:100CB000D0F800224B6A42EA0322C0F800220A7DE3
:100CC00002F01F0301229A40D0F81C329343C0F86F
:100CD0001C32CB69B3B9D0F80C329343C0F80C3254
:100CE0008C894B6864F31F434C6900EBC404C4F85F
:100CF00040320C890B6864F31F434C6900EBC40459
:100D0000C4F84432CB69012B16D1D0F80C3213430E
:100D1000C0F80C320C884B6864F31F434C6900EB3D
:100D2000C404C4F840320C89CB6864F31F434C6997
:100D300000EBC404C4F844328B69002BD0F80432B1
:100D40000ED01343C0F804320B69002BD0F81432D4
:100D500008D01343C0F81432096A012904D008E00E
:100D60009343EFE79343F5E7D0F81C121143C0F823
:100D70001C12D0F8001221F00101C0F8001200206E
:100D800010BD000000640040704730B590F820406E
:100D9000012C05D0022C03D0416A41F480215DE092
:100DA0000468002955D02469A40754D04FF4D8749E
:100DB000056804EB01142D5915F0040595600568CC
:100DC0002D594ED0ED08556005682C5904F00204E9
:100DD000D4604FF4DA74056804EB01142D5905F062
:100DE0000F05156105682D59C5F30725956105683F
:100DF0002C59240C54614FF4DC72046802EB01128C
:100E0000A4581C700468A458240A5C700468A45890
:100E1000240C9C700468A258120EDA704FF4DE7233
:100E2000046802EB0112A4581C710468A458240A37
:100E30005C710468A458240C9C710468A258120EBA
:100E4000DA71006881B1016941F02001016100207F
:100E500030BDE468A8E7416A41F400114162012015
:100E600030BD6D0D1560AFE7C16841F02001C16074
:100E7000EDE72DE9F05F0546006800244669D0F8EB
:100E800004908768D0F80CB0D0F810A0D0F8188083
:100E9000F10748D0F90714D001218160B80703D5C4
:100EA000284600F0B6FA0CE0780702D54FF400644B
:100EB00007E0380702D54FF4805402E0284600F0DE
:100EC000A7FAF80516D529684FF480708860B80530
:100ED00003D5284600F09FFA0CE0780502D544F4CB
:100EE000005407E0380502D544F4804402E0284667
:100EF00000F090FAF80316D529684FF48030886026
:100F0000B80303D5284600F088FA0CE0780302D530
:100F100044F4004407E0380302D544F4803402E08E
:100F2000284600F079FA300707D55FEACB6004D590
:100F30002968102044F40074C86070074FF0080757
:100F400007D55FEA0B7004D52868C760284600F013
:100F5000A9F9B00706D52868C068800702D02846DE
:100F600000F0A2F9700607D55FEACA6004D52968C7
:100F7000102044F480640861B00607D55FEA0A7067
:100F800004D528680761284600F012FAF00606D555
:100F900028680069800702D0284600F00AFAB003EA
:100FA00008D55FEAC96005D5296810204860284641
:100FB00000F000FAF00307D55FEA097004D528684D
:100FC0004760284600F02AFA300446D55FEA4970A7
:100FD00040D5F00504D55FEAC87001D044F00104A3
:100FE000B00504D55FEA887001D544F002047005AD
:100FF00004D55FEA487001D544F00404300529D5D2
:1010000018F0700F26D008F07000402815D006DCCC
:10101000102809D020280AD0302816D10AE05028FC
:101020000ED0602811D10EE044F008040DE044F029
:1010300010040AE044F0200407E044F0400404E017
:1010400044F0800401E044F480742868816921F050
:1010500070018161296804204860002C05D0686A0D
:10106000204368622846FFF78FFEBDE8F09F70B509
:10107000040003D094F8200010B104E0012070BDFA
:10108000204600F081F82068016841F0010101600C
:1010900000F0BCFC0546052604E000F0B7FC401B50
:1010A0000A2811D820684068C007F6D02068016877
:1010B00021F00201016000F0A9FC05460BE000F000
:1010C000A5FC401B0A2806D9606A40F40030606223
:1010D00084F82060D2E7206840688007EFD4207E43
:1010E0000128206801683DD021F080010160607E08
:1010F00001282068016838D021F040010160A07EFD
:1011000001282068016833D021F020010160E07ED1
:101110000128206801682ED041F010010160207F75
:1011200001282068016829D021F008010160607F52
:1011300001282068016824D021F004010160D4E96D
:1011400002010843D4E90412114308436168491EAF
:1011500008432168C86100206062012084F82000F3
:10116000002070BD41F08001C0E741F04001C5E7BB
:1011700041F02001CAE721F01001CFE741F008015A
:10118000D4E741F00401D9E7F0B587B00446142153
:101190006846FFF7D1F83E4B3E48DFF8F0E01968AB
:1011A000D4F800C03B4A032502260927103000244A
:1011B000491CF4452AD11960012907D1016841F081
:1011C00000710160006800F000700590106840F048
:1011D000080010601068CDE9005600F00800CDE965
:1011E000047069462C48CDE9024500F0E3FA00227C
:1011F0000521132000F096FC132000F085FC00224E
:101200000521142000F08EFC14203BE0DFF88CE078
:10121000F44539D1D0F800C04CF0806CC0F800C063
:10122000D0F800C001290CF0806CCDF814C0196012
:1012300007D1016841F000710160006800F00070A2
:101240000590106840F002001060106802AB00F0DA
:10125000020005904FF44050CDE9000683E8B0004D
:1012600069460F4800F0A6FA002205213F2000F051
:1012700059FC3F2000F048FC00220521402000F0EE
:1012800051FC402000F040FC07B0F0BD006400407D
:101290001000002030380240000C0240006800407E
:1012A000000402407047000070B5064600F0AEFB37
:1012B000374C2169401AB0F5FA7F07D94FF48041C5
:1012C000344800F096FB00F0A1FB2061304B324A1D
:1012D0001C3300213148FFF758FD2F4DF8B9304934
:1012E000306888421BD128680146A0F201200628F8
:1012F00015D2DFE800F00303080808082949206038
:1013000001EB401006E02748A1F20321803800EBF2
:10131000411061601E4A21491C3204F013F91C4B34
:101320001D4A1C3300212048FFF72FFD00282DD136
:101330001E493068884229D12868A0F20121062977
:1013400024D2DFE801F003030909141A1548A1604B
:10135000403000EB411006E00F49A0F20320803935
:10136000E06001EB40100A4A0F491C320AE0084ACB
:1013700009481C320C49403804E0054A06481C3232
:1013800009492038BDE8704004F0DCB870BD0000A9
:101390009C00002000140240C8440020500300209C
:1013A00000640040C843002078030020006800402B
:1013B000704770477047000070B5044690F82000F1
:1013C000012804D0606A40F40020606218E0022026
:1013D00084F820002068016821F00101016000F01C
:1013E00015FB05460EE000BF00F010FB401B0A286D
:1013F00008D9606A40F400306062052084F820005B
:10140000012070BD20684068C007EDD1606270BDEA
:1014100070477047704770477047704770472DE9B5
:10142000F0410446876D00F0F1FA064694F8350065
:101430000025022806D08020606584F83450012001
:10144000BDE8F0812068016821F016010160206884
:10145000416921F080014161206C08B9A06C20B184
:101460002068016821F0080101602068016821F00E
:10147000010101600CE000F0C9FA801B052807D9C2
:1014800020206065032084F8350084F83450D7E7C5
:1014900020680068C007EED194F85C103F208840B7
:1014A000B860012084F8350084F834500020C7E784
:1014B00090F83510022903D0802141650120704742
:1014C000052180F835100068016821F001010160F4
:1014D000002070472DE9F84304464FF00009CDF88D
:1014E000009063484FF41651A56D0068B0FBF1F70A
:1014F0002E6894F85C10082000FA01F131420FD0F8
:1015000021680A6852070BD50A6822F004020A60B3
:1015100094F85C108840A860606D40F00100606540
:1015200094F85C104FF0010808FA01F0304208D03E
:1015300021684969090604D5A860606D40F0020081
:10154000606594F85C1004208840304208D021681F
:101550000968890704D5A860606D40F004006065E3
:1015600094F85C1010208840304218D02168096837
:10157000090714D5A86020680168490304D50068EC
:10158000000308D5A16C07E00168C90503D4016810
:1015900021F008010160216C09B12046884794F8C8
:1015A0005C1020208840304231D021680968C9068B
:1015B0002DD5A86094F8350005282068016806D06C
:1015C000490347D5006800031DD4616C1CE021F07D
:1015D000160101602068416921F080014161206CA1
:1015E00008B9A06C20B12068016821F008010160F1
:1015F00094F85C103F208840A86084F8358084F817
:101600003490216D1FE0E16B09B120468847606D81
:1016100000282BD0606DC00714D0052084F8350059
:101620002068016821F0010101600098401C0090D1
:10163000B84203D820680068C007F6D184F8358026
:1016400084F83490E16C002910D001B02046BDE848
:10165000F04308470168C905D5D4016821F010019D
:10166000016084F8358084F83490CCE7BDE8F883D5
:10167000200000202DE9F041044600F0C7F906469D
:101680005CB1022084F83500002584F834502068CD
:10169000016821F0010101600DE00120BDE8F08149
:1016A00000F0B4F9801B052805D9202060650320CF
:1016B00084F83500F2E720680068C007F0D122689E
:1016C000116820480140D4E901031843D4E90336E6
:1016D0003343184363691843A3691843E369184304
:1016E000236A18430843616A042903D1D4E90B1320
:1016F00019430843106020684069666A20F00701BA
:1017000030460E43012704280CD1A06A0643E06A44
:1017100040B12046FFF7ECF920B14020606584F825
:101720003570BAE7206846612046FFF7CDF994F896
:101730005C203F2191408160656584F83570002010
:10174000ACE700003F8010F070B5044690F834001C
:10175000002501280CD0012084F8340094F835606D
:101760000020012E06D084F834000225284670BDE2
:10177000022070BD022684F8356060652046FFF7C0
:10178000E1F92068016841F001010160EEE7000025
:1017900070B5044600F03AF90546601C02D00448D2
:1017A0000078044400F032F9401BA042FAD370BD27
:1017B000140000202DE9F84FDFF8F8A100220124E1
:1017C0000AF1040B03254FF00F090BF1040E00BFC3
:1017D0000B6804FA02F63340B34270D10F7907F078
:1017E0000307012F01D0022F16D187684FEA420864
:1017F00005FA08FC27EA0C07D1F80CC00CFA08FC23
:101800004CEA070CC0F808C04768B7430E79C6F326
:10181000001696403E4346600E79F643B6070AD05E
:10182000C7684FEA420C05FA0CF6B7438E6806FA11
:101830000CF63E43C6600E7906F00306022E10D168
:10184000D60800EB8608D8F8206057074FEAD76C17
:1018500009FA0CF7BE430F6907FA0CF73743C8F8CB
:10186000207006684FEA420C05FA0CF7BE430F7968
:1018700007F0030707FA0CF7374307604E6816F4C2
:10188000403F1CD04C4E376847F48047376036687D
:1018900022F0030706F480460096484E07EB060C3C
:1018A000DCF8086897073F0F09FA07F826EA0806E8
:1018B000DFF80C81404503D14FF0000841E072E0B1
:1018C000DFF80081404502D14FF0010839E0DFF830
:1018D000F880404502D14FF0020832E0DFF8EC809A
:1018E000404502D14FF003082BE0DFF8E48040458B
:1018F00002D14FF0040824E0DFF8D880404502D13F
:101900004FF005081DE0DFF8D080404502D14FF0D0
:10191000060816E0DFF8C480404502D14FF0070802
:101920000FE0DFF8BC80404502D14FF0080808E026
:10193000DFF8B080404502D14FF0090801E04FF0D8
:101940000A0808FA07F848EA0608CCF80888DAF81E
:1019500000605746D1F804C09E435FEACC3C00D5F6
:101960001E433E60DBF800605F46D1F804C09E4332
:101970005FEA8C3C00D51E433E60DEF8006077468F
:10198000D1F804C09E435FEACC2C00D51E433E60D4
:10199000084F0C373E68D1F804C09E435FEA8C2C98
:1019A00000D51E433E60521C102AFFF411AFBDE863
:1019B000F88F0000003C01404438024000300140F4
:1019C000000002400004024000080240000C0240F7
:1019D000001002400014024000180240001C0240A7
:1019E00000200240002402400069084000D001208D
:1019F0007047426921EA02030A4043EA02418161D9
:101A000070470AB1816170470904FBE701488068AB
:101A100070470000140000200248816802781144D9
:101A200081607047140000200B4810B5016841F434
:101A300000710160016841F480610160016841F456
:101A400080710160032000F08DF8002000F006F89E
:101A500000F03EF8002010BD003C024010B50146E9
:101A600088B000222C2000F05DF82C2000F04CF80B
:101A700013480024016841F002010160006805A9D3
:101A800000F002000690684600F050F900F07EF980
:101A90000C494000B0FBF1F10C480B4A491E0260B2
:101AA00040F2E732C0E90324C0E9011400F044FC2D
:101AB00010B1012008B010BD044800F0A9FCF9E7FE
:101AC0004438024040420F0000040140F805002065
:101AD0000C4882B0016841F480410160006800F464
:101AE000804000900748001F016841F0805101606C
:101AF0000068002200F0805000900F21901E02B07C
:101B000000F010B844380240002809DB00F01F0242
:101B1000012191404009800000F1E020C0F800114F
:101B200070470000F0B40E4B1B680C46C3F3022351
:101B3000C3F10705042D00D90425191D072901D279
:101B4000002300E0DB1E012606FA05F1491E2140B4
:101B500099409E40761E16403143F0BC02F01DBAFB
:101B60000CED00E0064900F0070208684FF6FF039D
:101B7000184040EA0220034A104308607047000002
:101B80000CED00E00000FA052DE9F8431748016864
:101B900041F0805101600068154F00F0805001262F
:101BA00000903E64FFF732FF05464FF47A78114CFF
:101BB00005E000BFFFF72AFF401B40450DD86068D5
:101BC000C003F7D57E64FFF721FF0546464607E0D0
:101BD000FFF71CFF401BB04202D90320BDE8F88389
:101BE00060688003F4D50020F8E700004038024028
:101BF00000000E42007000402DE9F0470E4605003F
:101C000065D0DFF81481D8F80000F7B200F00F00BB
:101C1000B04207D288F80070D8F8000000F00F003A
:101C2000B04254D128683D4C810712D5400703D5F6
:101C3000206840F4E05020602878000703D5206831
:101C400040F4604020602068A96820F0F00008435C
:101C500020602878C0072DD03049686808390128ED
:101C600012D0022813D0032811D00968890700294F
:101C70002DDA216821F0030101432160FFF7C6FE40
:101C8000814641F2883A0EE009688903EFE7096866
:101C90008901ECE7FFF7BAFEA0EB0901514502D933
:101CA0000320BDE8F0872068696800F00C00B0EB05
:101CB000810FEFD1D8F80010404601F00F01B1427A
:101CC00007D90770006800F00F00B04201D0012072
:101CD000E7E72878400705D52068E96820F4E05058
:101CE000084320602878000706D52068296920F479
:101CF000604040EAC100206000F058F82168084ABE
:101D0000C1F30311515CC8400649086006480068E9
:101D1000FFF7A4FE0020C4E7003C02400838024060
:101D20007480000820000020180000200F220260AC
:101D30000C4A136803F003034360136803F0F003D5
:101D40008360136803F4E053C36012684FF4E053F8
:101D500003EAD20202610448006800F00F00086044
:101D60007047000008380240003C02400448054922
:101D700000680968044AC1F38221515CC840704779
:101D800020000020083802408480000804480549EB
:101D900000680968044AC1F34231515CC840704789
:101DA000200000200838024084800008154810B543
:101DB000006810F00C02144813D01449042A0FD004
:101DC000082A0ED10F4C241F2268236802F03F021C
:101DD0005B0207D52068C0F38810A0FB010106E074
:101DE000084610BD2168C1F38811A1FB0001002342
:101DF000FEF758FA2168C1F30141491C4900B0FBC4
:101E0000F1F010BD083802400024F400001BB700B8
:101E10002DE9F84F04006ED02078DFF84C93C0070E
:101E2000A9F104054AD009F104000168C1F3810158
:101E3000012908D00068C0F3810002280AD1D9F82E
:101E40000000400206D52868800337D56068002866
:101E5000E1D033E06068B0F5803F10D0B0F5A02F3E
:101E6000286810D020F480302860286820F4802072
:101E700028606068A8B1FFF7C9FD06460DE0286834
:101E800040F48030F4E740F480202860F7E700BF9A
:101E9000FFF7BCFD801B642873D828688003F7D542
:101EA0000CE0FFF7B3FD064605E000BFFFF7AEFD0F
:101EB000801B6428F0D828688003F7D42078DFF8E6
:101EC000AC8280074FF0000A3ED5A748001D01688C
:101ED00011F00C0F08D00068C0F3810002280BD16C
:101EE000D9F80000400207D42868800716D5E068BA
:101EF000012800D112E033E1E068B8B10120C8F850
:101F00000000FFF783FD064605E000BFFFF77EFDFA
:101F1000801B0228C0D828688007F7D52868216967
:101F200020F0F80040EAC10028600DE0C8F800A0E9
:101F3000FFF76CFD064604E0FFF768FD801B0228F2
:101F40001FD828688007F7D42078000722D5864F4D
:101F500087486169703771B101210160FFF756FD53
:101F6000064604E0FFF752FD801B022809D83868B6
:101F70008007F7D50EE0C0F800A0FFF747FD064642
:101F800005E082E0FFF742FD801B02287DD838681B
:101F90008007F7D42078400768D5DFF8CCB1002758
:101FA0000BF13C0BDBF80000C0000BD4DBF8001099
:101FB00041F08051CBF80010DBF80000012700F061
:101FC000805000906B4E3068C00510D4306840F4EB
:101FD00080703060FFF71AFD009005E0FFF716FDF6
:101FE0000099401A022850D83068C005F6D55E4ED8
:101FF000A0686C3601280FD00528306810D020F07A
:1020000001003060306820F004003060A068B8B192
:10201000FFF7FCFC00900FE0306840F00100F4E7AF
:1020200040F004003060F7E7FFF7F0FC0099411A38
:1020300041F28830814266D830688007F4D50EE0DE
:10204000FFF7E4FC009007E0FFF7E0FC0099411A7D
:1020500041F28830814256D830688007F4D42FB1DD
:10206000DBF8001021F08051CBF80010A069C8B354
:102070003D49091D0968C1F3810102294AD002289E
:10208000504607D0C8F8600000E03CE0FFF7BEFC17
:1020900004463BE04746C8F86000FFF7B7FC064639
:1020A00005E000BFFFF7B2FC801B02282BD8286890
:1020B0008001F7D4D4E907010843A16A2E4A4908F0
:1020C00002EB0141626A41EA8211084394F82C1044
:1020D00040EA0161C9F8001001203866FFF796FC5C
:1020E000044606E03EE000BFFFF790FC001B02281C
:1020F00009D828688001F7D534E000BFFFF786FCD7
:10210000001B022802D90320BDE8F88F286880014F
:10211000F4D427E00128F7D0D9F80000E26900F4F0
:10212000800191421CD1226A00F03F01914217D1F7
:1021300047F6C071626A0140B1EB821F10D1A26AFA
:102140004FF0FF3300F4403103EB5202B1EB024F8A
:1021500006D194F82C1000F07060B0EB016F01D044
:102160000120D1E70020CFE70438024000004742B9
:10217000800E4742007000400000FFFF70B5040071
:1021800009D0606A002540B125616561A56294F8B7
:10219000510040B10CE0012070BD6068B0F5827F55
:1021A000F4D0E561F2E784F85050204600F044F89E
:1021B000022084F851002068016821F0400101608C
:1021C000A088218900F4827001F404410843A189A8
:1021D00001F400610843217C01F002010843217DE4
:1021E00001F001010843218B01F400710843217FB4
:1021F00001F03801084394F8201001F080010843F1
:10220000218D01F40051084321680860A069042170
:1022100001EA104094F8241001F0100108432168ED
:1022200048602068C16921F40061C16165650120D1
:1022300084F85100002070BD10B586B0044614210A
:102240006846FEF779F814492068884221D113487E
:102250000021026842F480120260006800F48010DD
:1022600005900E481438026842F0200202600068AF
:1022700000F0200005904FF4607000900220CDE93E
:102280000101032003900520049069460448FFF7EC
:1022900091FA06B010BD00000050014044380240E1
:1022A000001402407047704770B590F83C20012A36
:1022B00032D0012480F83C40022280F83D2003689F
:1022C0005A689D6822F070060A6832435A60134BC0
:1022D00002689A4214D0B2F1804F11D0104B9A424A
:1022E0000ED0104B9A420BD00F4B9A4208D00F4B96
:1022F0009A4205D00E4B9A4202D00E4B9A4204D11C
:10230000496825F080031943916080F83D40002121
:1023100080F83C10084670BD022070BD00000140EE
:102320000004004000080040000C00400004014090
:10233000004001400018004010B5040003D094F89C
:102340003D0010B107E0012010BD002084F83C00E2
:10235000204600F01FF8022084F83D00211D20686F
:1023600001F0FAFA012084F8460084F83E0084F86F
:102370003F0084F8400084F8410084F8420084F86B
:10238000430084F8440084F8450084F83D000020B0
:1023900010BD000010B586B0044614216846FDF754
:1023A000CBFF226800211748B2F1804F21D0164B95
:1023B0009A421CD1026842F004020260006800F0F8
:1023C000040005900F481038026842F008020260CD
:1023D000006800F008000590D81300900220CDE9B5
:1023E0000101CDE9031069460848FFF7E3F906B09B
:1023F00010BD016841F001010160006800F00100BA
:102400000590F4E74038024000080040000C02400C
:1024100090F83D10012901D001207047022180F879
:102420003D100168CA6842F00102CA6000681149A3
:10243000884214D0B0F1804F11D00F4988420ED09D
:102440000E4988420BD00E49884208D00D49884277
:1024500005D00D49884202D00C49884204D18168D8
:1024600001F00701062903D0016841F00101016074
:1024700000207047000001400004004000080040B8
:10248000000C0040000401400040014000180040E2
:1024900070B5044690F83C000025012817D00126AD
:1024A00084F83C60022084F83D002068826822F0B5
:1024B000770222F47F4282600868502838D00DDC11
:1024C00020284FD005DC90B3102811D14AE002201B
:1024D00070BD302846D040280AD13BE060282FD07C
:1024E00070280DD0B0F5805F03D0B0F5005F12D03A
:1024F000012584F83D60002084F83C00284670BD2A
:10250000CB68D1E90121206801F097FA2068816841
:1025100041F0770109E0CB68D1E90121206801F0A1
:102520008CFA2068816841F480418160E1E719E01C
:10253000CA684968206801F055FB5021206806E010
:10254000CA684968206801F05EFB6021206801F0DC
:102550007EFACEE7CA684968206801F043FB402153
:102560002068F4E7226801461046F0E7144810B5E9
:1025700041880088081A002802DC42F210710844E1
:102580000F4C0C3C2080FFF741FA6060B4F900105A
:102590004FF42572A1F57A6151434FF47A6291FBB1
:1025A000F2F1084AD180A168401AB0F5FA7F05D946
:1025B00080210548FFF71DFA6068A06010BD00008B
:1025C00098000020304300200010024070B50446FF
:1025D000006801694FF00005C943890715D4C16837
:1025E000C943890711D4E91E0161012020772068C1
:1025F00080698007204602D0FFF7B8FF04E000F0B2
:10260000D9F8204600F06BF9257720680169C943A5
:10261000490717D4C168C943490713D46FF00401AF
:102620000161022020772068806910F4407F2046F5
:1026300002D0FFF79BFF04E000F0BCF8204600F05A
:102640004EF9257720680169C943090716D4C16886
:10265000C943090712D46FF00801016104202077F3
:102660002068C0698007204602D0FFF77FFF04E0A2
:1026700000F0A0F8204600F032F9257720680169C3
:10268000C943C90617D4C168C943C90613D46FF03A
:1026900010010161082020772068C06910F4407F94
:1026A000204602D0FFF762FF04E000F083F82046E6
:1026B00000F015F9257720680169C943C90708D1D9
:1026C000C168C943C90704D1891E0161204600F0D1
:1026D0006BF920680169C943090609D4C168C94377
:1026E000090605D46FF0800101612046FFF7DAFD8D
:1026F00020680169C943490609D4C168C94349062C
:1027000005D46FF040010161204600F057F92068C0
:102710000169C94389060BD4C168C943890607D436
:102720006FF0200101612046BDE87040FFF7BBBD9E
:1027300070BD000010B586B0044614216846FDF750
:10274000FBFD2368002117480222B3F1804F17D008
:10275000154CA34212D1036843F0080303600068DC
:1027600000F0080005904FF4E0400090CDE9012111
:10277000CDE9031269460D48FFF71CF806B010BDFD
:10278000036843F001030360006800F00100059056
:1027900003200090CDE901210120CDE90310694615
:1027A0000348E9E73038024000080040000C0240CE
:1027B00000000240704770B5044690F83C000026C7
:1027C0000D4601280FD0012084F83C006AB1042A8C
:1027D0001DD0082A2FD00C2A3FD00126002084F8D3
:1027E0003C00304670BD022070BD206801F038F911
:1027F0002068816941F0080181612068816921F0C8
:1028000004018161206881692A69114311E020680F
:1028100001F056F92068816941F400618161206806
:10282000816921F480618161206881692A6941EAB6
:1028300002218161D2E7206801F078F92068C1693E
:1028400041F00801C1612068C16921F00401C16142
:102850002068C1692A69114311E0206801F09AF9E2
:102860002068C16941F40061C1612068C16921F437
:102870008061C1612068C1692A6941EA0221C161A0
:10288000ACE710B5040003D094F83D0010B107E0A8
:10289000012010BD002084F83C00204600F01EF806
:1028A000022084F83D00211D206801F055F8012028
:1028B00084F8460084F83E0084F83F0084F8400025
:1028C00084F8410084F8420084F8430084F844000E
:1028D00084F8450084F83D00002010BD7047704723
:1028E00010B50446022249B104290ED0082913D09C
:1028F00094F84100012816D0012010BD94F83E0044
:102900000128F9D184F83E200FE094F83F00012817
:10291000F2D184F83F2008E094F840000128EBD180
:1029200084F8402001E084F841200122206801F071
:1029300077F816492068164A884201D0904203D1A0
:10294000436C43F4004343642068884213D0B0F1E1
:10295000804F10D00F4988420DD00F4988420AD0CD
:102960000E49884207D0904205D00D49884202D0D6
:102970000C49884204D1816801F00701062903D07F
:10298000016841F001010160002010BD000001401C
:10299000000401400004004000080040000C00401A
:1029A000004001400018004000680349884201D1FE
:1029B000FFF732B8704700000004014070477047CD
:1029C00070470000F8B5016804460868CA684B699A
:1029D00010F00F0F4FF000055AD003F0010602F47B
:1029E0009077374365D0C10705D0D10503D5216C59
:1029F00041F001012164410705D5D90703D0216CBD
:102A000041F002012164810705D5D90703D0216C6B
:102A100041F004012164010707D502F02001314390
:102A200003D0216C41F008012164216C00293BD0C6
:102A3000800604D5900602D5204601F061F9206891
:102A40004069216CC0F3801001F008010143204669
:102A50002BD001F0F2F820684069400621D52068AB
:102A6000143050E8001F21F0400140E80012002A15
:102A7000F5D1A06BA8B16C490165A06BFEF718FDFC
:102A8000002811D0A06B016D01B0BDE8F0400847EF
:102A900083060ED593060CD52046BDE8F84001F01C
:102AA0002FB92046FFF78CFFF8BDFFF789FF25649B
:102AB000F8BD266B2023012E79D1C60677D5D60620
:102AC00075D50868486800904869400640D5A16BF4
:102AD000086840680004000CEAD0A28D8242E7D961
:102AE000E085C869B0F5807F2DD020680C3050E8B3
:102AF000001F21F4807140E80012002AF5D12068FF
:102B0000143050E8001F21F0010140E80012002AB3
:102B1000F5D12068143050E8001F21F0400140E852
:102B20000012002AF5D184F83E30256320680C306D
:102B300050E8001F21F0100140E80012002AF5D1F2
:102B4000A06BFEF76CFCA08DE18D401A81B229E0EC
:102B5000A08DE18D401A81B2E08D0028A8D0002917
:102B6000A6D020680C3050E8002F22F4907240E884
:102B70000026002EF5D12068143050E8002F22F0F6
:102B8000010240E80026002EF5D184F83E3025638E
:102B900020680C3050E8002F22F0100240E800239B
:102BA000002BF5D12046FFF70AFFF8BDFFE7050629
:102BB0002BD5150629D594F83D002128F5D1A0681C
:102BC000B0F5805F01D12069B0B1206A411C21625B
:102BD000216800784860E08C401E0004000CE0840E
:102BE000E3D12068C16821F08001C1602068C1681C
:102BF00041F04001C160D8E7206A0088C0F30800B6
:102C00004860206A801C2062E5E74006CDD550066A
:102C1000CBD5CA68204622F04002CA6084F83D3015
:102C200000F06BF9C1E700002B3C000870B5040010
:102C300004D094F83D00002510B106E0012070BDDD
:102C400084F83C50204600F023F8242084F83D000E
:102C50002068C16821F40051C160204601F0B0F83D
:102C60002068016921F4904101612068416921F0E7
:102C70002A0141612068C16841F40051C1602564A6
:102C8000202084F83D0084F83E00002070BD000044
:102C90002DE9F04387B0064614216846FDF74CFB4A
:102CA0005A49594837680025584B103903220224E5
:102CB0004FF0080C87421CD1186840F000401860A3
:102CC000186800F000400590086840F010000860A7
:102CD000086802AD00F010000590CDE90024012045
:102CE00085E8051069464A48FEF764FD07B0BDE86F
:102CF000F0834648DFF81C81001D4FF00709474567
:102D000038D1036843F010030360006800F010003E
:102D10000590086840F0020008600868694600F005
:102D200002000590C0208DE83100CDE903293A4822
:102D3000FEF740FD3A4C394820604FF00060C4E98E
:102D400001054014C4E9035065614FF44030A561AA
:102D5000C4E9075020466562FEF78CFC08B1FDF718
:102D600006FFB463002205212520A663FEF7DAFEE4
:102D7000252021E02B4EB74221D1186840F40030C5
:102D80001860186800F400300590086840F00800EA
:102D900008600868694600F00800059060208DE82A
:102DA0003100CDE903292048FEF704FD002205216A
:102DB0002620FEF7B7FE2620FEF7A6FE96E71B4B61
:102DC0009F4293D1036843F020030360006800F042
:102DD00020000590086840F04000086008686946D7
:102DE00000F0400005904FF484408DE83100CDE9BB
:102DF000032C0F48FEF7DEFC002205214720FEF7DA
:102E000091FE4720D8E70000007C00404038024097
:102E100000100240001001400004024040640240E3
:102E20009805002000440040000C024000140140BE
:102E30000018024030B40368DC6844F01004DC6021
:102E400030BC00F021BF70472DE9F843044690F8EC
:102E50003D001F4616460D4620284CD1C5B1BEB1D7
:102E600094F83C00012846D0012084F83C004FF043
:102E70000008C4F84080212084F83D00FEF7C6FD1C
:102E8000A6848146E684A068B0F5805F03D004E0A4
:102E90000120BDE8F883206928B12E465FF00005C7
:102EA00084F83C800EE00026FAE78021204601F0FD
:102EB0000DF8A0B9AEB116F8010B21684860E08C9E
:102EC000401EE084E08C4B464FF000020097002843
:102ED000EBD14FF04001204600F0F8FF30B1032065
:102EE000D7E735F8020BC0F30800E6E7202084F8A6
:102EF0003D000020CDE70220CBE77047FEE703F05E
:102F0000B9FD012004F020F8F9E700002DE9FC5F8D
:102F10005348007A9FED530A534DDFF850B1022811
:102F200012D05348534C002290F90310524E20689F
:102F300005F1680905F59C780BF12007012911D0EE
:102F400002292AD0F1B35DE05FF0000000EB8001C0
:102F500001EBC00105EBC101401C81ED100A022804
:102F6000F4DB4FE09246454A3F4B1044CDE9000A5E
:102F700003F1D0023D49424803F0ECFE3F4962684C
:102F800049421144CDE9001A4B46424639463C4875
:102F900003F0E0FE4FF4617033E09246394A324B61
:102FA0001044CDE9000A03F1D0023049344803F05F
:102FB000D1FE344A616852421144CDE9001A4B46B1
:102FC000424600E006E039462D4803F0C3FE40F6D5
:102FD000340016E05FF0000000EB800101EBC0015F
:102FE00005EBC101401C81ED100A0228F4DB03F05F
:102FF0008DFEDBF814102160DBF83400606040F2D5
:1030000014503060204890ED2A0ABDEEC00A10EE40
:10301000101A09B2009190ED100ABDEEC00A10EE30
:10302000100A95ED2A0A03B2BDEEC00A10EE100A8E
:1030300095ED100A02B2BDEEC00A10EE100A01B200
:103040000F4800F083FBBBF82020BBF80000DBF842
:103050003430DBF8141002B0BDE8F05F00F0D4BAF1
:103060003043002000000000B0470020C84300208B
:103070000D450020D80000203C08004048DC03003B
:1030800050030020D0FB0100944500200F4810B5EC
:103090000D4901600521416000214FF4003281603B
:1030A000C0E9031252014261017601224276817623
:1030B000C17601774177FDF7DAFF002803D0BDE83C
:1030C0001040FDF754BD10BD0064004050030020C7
:1030D0000F4810B50D4901600521416000214FF4F2
:1030E00000328160C0E9031252014261017601227F
:1030F00042768176C17601774177FDF7B8FF0028E7
:1031000003D0BDE81040FDF732BD10BD006800409F
:1031100078030020094808B5016841F48001016086
:103120000068002200F48000009005213A20FEF79C
:10313000F9FCBDE808403A20FEF7E6BC3038024012
:1031400010B59CB01C2216496846FDF7DCF800213A
:10315000684603F005FF134C11491C2220601C3106
:1031600007A8FDF7D0F8002107A803F0F9FE0C49E5
:1031700060601C2238310EA8FDF7C5F800210EA8AA
:1031800003F0EEFE0649A0601C22543115A8FDF79D
:10319000BAF8002115A803F0E3FEE0601CB010BDF2
:1031A000FC7F0008000000202DE9F04F87B01421BB
:1031B0006846FDF7C1F869480025016841F0100133
:1031C0000160016801F010010591016841F0020100
:1031D0000160016801F002010591016841F04001C0
:1031E0000160016801F040010591016841F00101B1
:1031F0000160016801F001010591016841F00801D9
:103200000160016801F008010591016841F00401C5
:103210000160016801F004010591016841F020019D
:103220000160016801F020010591016841F0800111
:1032300001600068DFF828A100F0800005900122FD
:1032400020215046FEF7DDFB00224FF48151454816
:10325000FEF7D7FB012240214248FEF7D2FBDFF800
:103260000891002203214846FEF7CBFBDFF8FCB0B3
:10327000012224215846FEF7C4FB0022182158469B
:10328000FEF7BFFB012220213948FEF7BAFB0022DE
:1032900002215046FEF7B5FB01242027CDE900743A
:1032A00069465046CDE90245FEF784FA02260097AA
:1032B000CDE9014669462B480394FEF77BFA40208E
:1032C000CDE9000469462748CDE90245FEF772FAC8
:1032D0004FF00308CDF800800395CDE9014669461B
:1032E0004846FEF767FACDE90065694658460296FA
:1032F000FEF760FA2420CDE90004CDE902486946D2
:103300005846FEF757FA182003958DE85100694694
:103310005846FEF74FFA10208DE8610069461448C0
:10332000FEF748FACDE90074CDE902486946104835
:10333000FEF740FA0096CDE90145694650460395EF
:10334000FEF738FA20038DE83100694605480395F9
:10335000FEF730FA07B0BDE8F08F000030380240C9
:103360000004024000100240001402400008024025
:10337000000002400F4810B50D4901604FF4827102
:10338000416000218160C1604FF400720161C0E9B9
:103390000512C1610162416281620A21C162FEF7C8
:1033A000EDFE002803D0BDE81040FDF7E0BB10BDE6
:1033B00000500140A003002010B58EB000240794F7
:1033C000089409940A940B941C2168460C94FCF709
:1033D000B3FF22484FF0804101605921C0E9011438
:1033E00044F61F61C0E9031480218161FEF7A4FF48
:1033F00008B1FDF7BCFB4FF48050079007A91748B0
:10340000FFF746F808B1FDF7B2FB1448FFF739FAA9
:1034100008B1FDF7ACFB0B940BA910480C94FEF718
:1034200043FF08B1FDF7A3FB6020CDE9000402943F
:103430000022694609480494FFF7BDF908B1FDF779
:1034400096FB042269460548FFF7B5F908B1FDF778
:103450008EFB0248FFF76EF90EB010BDF803002096
:1034600010B58EB000240794089409940A940B9424
:103470001C2168460C94FCF75FFF27482549016032
:103480005921C0E9011444F61F61C0E903148021E9
:103490008161FEF751FF08B1FDF769FB4FF48050E1
:1034A000079007A91C48FEF7F3FF08B1FDF75FFB83
:1034B0001948FFF7E6F908B1FDF759FB0B940BA982
:1034C00015480C94FEF7F0FE08B1FDF750FB6020A4
:1034D000CDE900040294002269460F480494FFF7E6
:1034E0006AF908B1FDF743FB042269460A48FFF771
:1034F00062F908B1FDF73BFB082269460648FFF771
:103500005AF908B1FDF733FB0348FFF713F90EB082
:1035100010BD000000080040400400200C4810B519
:103520000A4901604FF4E1314160002181600C22C1
:10353000C160C0E904128161C161FFF777FB002817
:1035400003D0BDE81040FDF712BB10BD007C004069
:10355000880400200D4810B50B4901600C494160FA
:1035600000214FF480628160C0E903120C22C0E99F
:103570000521C161FFF75AFB002803D0BDE81040C8
:10358000FDF7F5BA10BD000000100140CC0400208A
:10359000A08601000C4810B50A4901604FF4E131E2
:1035A0004160002181600C22C160C0E90412816188
:1035B000C161FFF73BFB002803D0BDE81040FDF7D9
:1035C000D6BA10BD00440040100500200C4810B5CC
:1035D0000A4901604FF4E1314160002181600C2211
:1035E000C160C0E904128161C161FFF71FFB0028BF
:1035F00003D0BDE81040FDF7BABA10BD0014014079
:1036000054050020FEE7704730B4174CAA252570FA
:103610006570F125A5700C25E570050A25716071AE
:10362000080EA071080CE071080A20726172100A7D
:10363000A072E272180E2073180C6073180AA0733F
:103640000021E3730846225C401C1144C0B2C9B299
:103650001228F8D3217430BC40F2E733112202491A
:103660000248FFF7F1BB0000FC44002010050020D9
:1036700010B503F037F903F0CBF904F0A9F801F025
:10368000EFFDBDE81040FDF78FB9FFF7F1BFFFF781
:10369000FCFF012003F058FCF9E710B503F036F900
:1036A00001F0D4FB04F082F8BDE8104001F006BC44
:1036B0002DE9F0412048102190F90D501F48FEF7E8
:1036C00093F91F4C1F4E022120703046FEF78CF9F3
:1036D000607004213046FEF787F9A07001211A4876
:1036E000FEF782F9E07094F9003000210126A4F180
:1036F00008002BB994F90120022752B1012A14D0F5
:10370000012B0CD16278002A09D155B1012D08D0C6
:1037100002E035B1012D06D0022D00D10670BDE8C2
:10372000F0810170FBE70770F9E7002DF9D0012D5A
:10373000F9D0022DF5D0F2E70D450020000002403F
:10374000F00000200008024000040240F0B40F48DE
:103750004FF40075049C0560002508268560C0E9CB
:10376000035605750A480D0A05704170110A8170EB
:10377000C270190A01714371210A8171C471F0BCD0
:103780000246002301490348FDF713BAE444002030
:10379000B000002050030020F0B40F4840F2FF15A5
:1037A000049C0560002508268560C0E90356057560
:1037B0000A480D0A05704170110A8170C270190A19
:1037C00001714371210A8171C471F0BC024600236A
:1037D00001490348FDF7EDB9E4440020B0000020A2
:1037E00050030020F0B40F484FF40075049C0560AE
:1037F000002508268560C0E9035605750A480D0AAC
:1038000005704170110A8170C270190A017143710B
:10381000210A8171C471F0BC0246002301490348AA
:10382000FDF7C7B9E4440020B00000207803002071
:10383000F0B40F4840F2FF15049C056000250826EF
:103840008560C0E9035605750A480D0A0570417088
:10385000110A8170C270190A01714371210A8171C4
:10386000C471F0BC0246002301490348FDF7A1B929
:10387000E4440020B00000207803002010B5502060
:1038800080F31188BFF34F8FBFF36F8F04F0EEFA10
:1038900018B104494FF080500860002080F311886F
:1038A00010BD000004ED00E030B593B03021684653
:1038B000FCF742FD14210CA8FCF73EFD1A48002538
:1038C000016841F080510160006800F08050119063
:1038D0001648016841F4404101600068022400F488
:1038E0004040119001200090000401908001CDE93A
:1038F000064006200890B420CDE9090404200B906E
:103900006846FEF785FAFEF73FF90CA90F2081E81B
:1039100031004FF4A0500F90E002109005210CA848
:10392000FEF76AF913B030BD403802400070004025
:103930000548016841F47001016003494FF00060DF
:10394000803908607047000088ED00E00148FEF70C
:103950003DBE0000F8050020F0B50268254C264D5C
:10396000264E274F274B4FF0804CA04209D0604590
:1039700007D0A84205D0B04203D0B84201D0984247
:1039800004D122F0700E4A6842EA0E02A0421BD017
:10399000604519D0A84217D0B04215D0B84213D014
:1039A000984211D0184DA8420ED0184DA8420BD005
:1039B000174DA84208D0174DA84205D0164DA84271
:1039C00002D0164DA84203D122F44075CA682A439A
:1039D0004D6922F080022A4302608A68C2620A6846
:1039E0008262A04201D0984201D10969016301219C
:1039F0004161F0BD000001400004004000080040AB
:103A0000000C00400004014000400140004401401F
:103A10000048014000180040001C00400020004009
:103A200010B501F01F030121046A99408C43046220
:103A3000016A9A401143016210BD10B5846842EAE0
:103A4000032224F47F440A432243826010BD82682B
:103A500022F070020A4342F00701816070470000C3
:103A6000F0B5026A22F001020262036A42688469C8
:103A7000124E24F073050C682C4323F002058B686A
:103A80002B430D4DA84201D0B04205D123F00807C9
:103A9000CB683B4323F00403A84201D0B04205D1D8
:103AA0004D6922F4407215438A692A434260846159
:103AB000496841630362F0BD000001400004014019
:103AC000F0B5026A22F010020262026A4368846959
:103AD0000D6824F4E64444EA05248D6822F02002AF
:103AE00042EA05120F4D104EA84201D0B04206D155
:103AF000CF6822F0800242EA071222F04002A84278
:103B000001D0B04207D14D6923F4406343EA8503F5
:103B10008D6943EA85034360846149688163026279
:103B2000F0BD00000000014000040140F0B5026A51
:103B300022F480720262026A4368C46922F400724D
:103B400024F073050C68124E2C438D6842EA05225E
:103B50000E4DA84201D0B04206D1CF6822F40062D7
:103B600042EA072222F48062A84201D0B04207D183
:103B70004D6923F4405343EA05138D6943EA051365
:103B80004360C4614968C1630262F0BD0000014046
:103B90000004014030B5026A22F480520262046AD5
:103BA0004268C3690D6823F4E64343EA05238D6840
:103BB00024F4005444EA0534084DA84202D0084DCC
:103BC000A84204D14D6922F4804242EA8512426043
:103BD000C36149680164046230BD00000000014017
:103BE0000004014010B5036A046A24F00104046271
:103BF000846924F0F00444EA021423F00A020A4320
:103C00008461026210BD10B5036A23F010030362E1
:103C10008369046A23F4704343EA023224F0A00368
:103C200043EA01118261016210BD10B5806B002171
:103C3000C185C184FEF7C4FE10BD01680C3151E896
:103C4000002F22F4907241E80023002BF5D1016887
:103C5000143151E8002F22F0010241E80023002B2B
:103C6000F5D1016B012909D101680C3151E8002F10
:103C700022F0100241E80023002BF5D1202180F82A
:103C80003E10002101637047F8B5044690F83E00ED
:103C9000202833D179B372B394F83C0001282DD099
:103CA000012084F83C00A162A28500252564222021
:103CB00084F83E00A06B134605650846A66B216894
:103CC00002463046091DFDF73FFD20680168416846
:103CD000009184F83C50C16841F48071C160206853
:103CE000416941F0010141612068416941F04001B1
:103CF00041610020F8BDFFE70120FBE70220F9E762
:103D000008B590F83E10222901D0022008BD826833
:103D10004FF480539A4201D1016921B1816A9A42DC
:103D20001BD04AB10AE00268816A5268C2F30802F5
:103D30000A80816A891C08E0026972B102685268CF
:103D400002F07F020A70816A491C8162C18D491E9E
:103D50000904090CC18503D019E002685268F1E733
:103D60000168CA6822F02002CA600168CA6822F4A9
:103D70008072CA6001684A6922F001024A6120210A
:103D800080F83E10016B012903D0FFF75CF800209A
:103D900008BD0021016301680C3151E8002F22F0B9
:103DA000100241E80023002BF5D101680A68D20611
:103DB00002D50A6849680091818DFEF700FEE6E7AA
:103DC00070B5044600680169E26821F4405111436E
:103DD00001612169A068E2690843616911430843F0
:103DE0002168CA6849F20C639A430243CA6020689A
:103DF0004169A26921F44071114341613149206850
:103E0000884202D03049884202D1FDF7BFFF01E06D
:103E1000FDF7ACFFE2690023192164253226B2F5D3
:103E2000004F626828D0A0FB0101930F9200FCF7BD
:103E300039FA0146B0FBF5F06FF01802504301EB80
:103E4000800006EB0010B0FBF5F000F0F002B1FBD3
:103E5000F5F002EB0012B1FBF5F06FF018035843D8
:103E600001EB800006EB0010B0FBF5F000F00F0056
:103E700021681044886070BDA0FB010192185B416D
:103E8000FCF710FA0146B0FBF5F00201B1FBF5F0CA
:103E90006FF01803584301EB800006EBC000B0FB45
:103EA000F5F000F0F80002EB4002B1FBF5F05843EA
:103EB00001EB800006EBC000B0FBF5F000F007005E
:103EC000D6E7000000100140001401402DE9F04148
:103ED000984617460E460446069D27E0681C25D0E6
:103EE0002DB1FDF793FDA0EB0800A8421ED9206874
:103EF0000C3050E8001F21F4D07140E80012002A75
:103F0000F5D12068143050E8001F21F0010140E88D
:103F10000012002AF5D1202084F83D0084F83E00EC
:103F2000002084F83C000320BDE8F0812068006890
:103F300036EA000004D00020B842CFD00020F3E7DA
:103F40000120F9E70148FEF73DBD0000CC04002048
:103F50000148FEF737BD0000100500200148FEF7BC
:103F600031BD000054050020FEE703B40198410074
:103F7000009850EAC12018BF04204A0D18BF40F035
:103F8000010040F2FF72B2EB515F08BF40F0020047
:103F9000012808BF052002B070470907090E002854
:103FA00004DB00F1E02080F80014704700F00F00FF
:103FB00000F1E02080F8141D7047000000000000B0
:103FC0002DE9F04D2DED040B2DED0E8B96B0DDE9B6
:103FD0002550279CDDF890A025F0004624F00048ED
:103FE000BAF1000F14BF0121002101EB4502FC4989
:103FF00053184A1093422AD3002814BF01230023E8
:1040000003EB44030B44F7498B4220D358EA0001E9
:104010009FEDF59B76D0DFF8D8B35D4503D1BAF1BB
:10402000000F05D188E0BAF1000F08BF002100D0D1
:10403000012101EB450111F5001F08D8002814BF2C
:104040000121002101EB440111F5001F0BD99DED69
:10405000261B9DED240B16B0BDEC0E8B04B0BDE805
:10406000F04D00F069BE0027002DBCBFE149884536
:1040700021DAE1498845A8BF02271CDAC3451ADCCA
:10408000DE4901EB2851142908DDC1F1340220FA80
:1040900002F101FA02F282420DD108E058B9C1F1F1
:1040A000140228FA02F101FA02F2424503D101F0AA
:1040B0000101C1F1020756EA0A0124D1002C22DADB
:1040C000002D18BF022F01D0012F0AD0022000F0CE
:1040D0007FFE16B0BDEC0E8B04B0BDE8F04D00F0D5
:1040E00013BE022000F074FE00F00EFE51EC100B27
:1040F00081F0004141EC100B16B0BDEC0E8B04B00A
:10410000BDE8F08D18E09FEDBEAB9FEDBF8B0028A2
:1041100071D1B848804522D105F1804010F580105A
:1041200008BFBAF1000F07D0B3450ADC002CA8BFC6
:104130009DED260BE0DA0DE0B0EE490AF0EE690ADB
:10414000DAE7002C06DA9DED260B51EC100B81F01E
:1041500000416FE0AE48784490ED000BCCE7D845C5
:104160004DD1002C48DA2EB186423AD1BAF1000F77
:1041700042D126E0BAF1000F13D0022000F028FE51
:1041800000F0F6FD8DED020B9DED240B8DED000B87
:1041900010EE900A039961F31E0003909DED020B4F
:1041A000AAE78DED02AB9DED240B1AEE901A10EEEE
:1041B000900A8DED000B61F31E0003909DED020B44
:1041C0009AE78DED028B9DED240B18EE901A10EE00
:1041D000900A8DED000B61F31E0003909DED020B24
:1041E0008AE709DA9DED240B51EC190B53EC102BE7
:1041F000FCF7DEFA1EE020E09DED240B7CE7864212
:104200001BDAB4F1804F0DD0A4F10050B0F1FF5093
:1042100013D1002D11DB9DED240B51EC100B03F09D
:104220008DFA07E09DED240B53EC102B51EC100B95
:1042300000F0C2BC41EC100B5EE79DED240B51EC8D
:10424000100B01F097F8BAF1000FCDE90E0142D141
:104250009FED710B46B3A6F1E040B0F17F600CD04A
:104260005E4538D1002D00DAA7B3022F0CBF012024
:104270004FF0FF30FCF7DDF8DCE7002D01DD002C0E
:104280000DDA002D01DD002C1FDB002D16DA002CCD
:1042900014DB012F08BF9FED620B3FF42DAFB0EE92
:1042A0004A0AF0EE6A0A27E7022F18BF002D0CD049
:1042B000012F0AD1002DFFF61FAF06E0002DB8BF79
:1042C000002C08DA012F3FF417AFB0EE480AF0EEE9
:1042D000680A11E71BE0012000EBE57050EA0701D6
:1042E00015D0791EB0EE498AF0EE698A084308BFFE
:1042F0009FED4D8B4E480025804570DD4D494E4861
:10430000884514DDB0420DDB002C19DB2FE00120C5
:1043100000F05EFD16B0BDEC0E8B04B0BDE8F04DB4
:1043200000F016BDB34502DC002C09DC1FE086421C
:1043300002DA002C1BDA03E05E452BDD002C16DDD3
:10434000022000F045FD00F013FD8DED020B53EC53
:104350001A2B51EC180BFBF7FAFFCDE9000103997A
:10436000019861F31E0003909DED020BC4E602204C
:1043700000F02EFD00F00CFD10EE901A18EE900AE1
:104380008DED020B8DED008B61F31E0003909DED12
:10439000020BB1E69DED0E0B53EC192B51EC100BFB
:1043A000FCF700FA9FED260BCDE9080153EC102B2A
:1043B0009DED080B51EC100BFBF7C9FF9FED221B85
:1043C00053EC112BFCF7F1F99DED081B53EC112B6D
:1043D000FBF7BDFF9FED1E1B53EC112B3CE08CE067
:1043E000FFFF1F00FFFF0F00000000000000F03F74
:1043F0000000F03F0000F07F0000404301FCFFFFA1
:10440000000000000000F07F00000000000000003D
:10441000BE3F00000000000000000000000000801F
:10442000000000000000F0FF000000000000F0BFEE
:104430000000E0410000F043FFFFEF3F00000000FC
:10444000000000000000D03F555555555555D53F4B
:10445000000000000000E03FFCF7A7F99DED080B0D
:1044600041EC1A0B53EC102B51EC100BFBF76FFFC8
:1044700053EC1A2BFBF76BFF41EC1A0B9FEDFE0B75
:1044800053EC102B9DED080B51EC100BFBF75FFF6D
:1044900041EC1B0B9FEDFA0B51EC1A0B53EC102B5C
:1044A000FBF755FF41EC1A0B9FEDF70B53EC102B6C
:1044B0009DED080B51EC100BFBF749FF53EC1A2B49
:1044C000FCF770F941EC1A0B51EC1B0B53EC1A2B57
:1044D000FCF7C7F80690CDE906519DED060B53ECAD
:1044E0001B2B51EC100BFCF75DF953EC1A2BFCF76E
:1044F0005CF941EC100B00F0A1B90020B6F5801F6B
:104500000EDA9FEDE30B53EC102B9DED0E0B51ECEF
:10451000100BFBF71CFFCDE90E016FF034000E46C7
:1045200000EB2650A0F2FF37C6F31300DA4940F043
:104530007F6646F040568842D8BF002408DDD74940
:104540008142C8BF012403DC0024A6F580167F1C2D
:10455000D348784400EBC4000F9690ED00CB9DED5E
:104560000E0B53EC1C2B51EC100BFCF71BF99DEDC3
:104570000E0B41EC1B0B53EC1C2B51EC100BFCF7FE
:1045800070F841EC100B51EC190B53EC102BFCF7AD
:104590000FF941EC1D0B51EC1B0B53EC1D2BFBF7E2
:1045A000D6FE41EC1A0BBF488DED10AB7844109548
:1045B00090ED000B4FF0005040EA660000EB8440A5
:1045C0008DED080B00F5002009909DED080B53ECD4
:1045D0001C2B51EC100BFCF7E5F89DED0E1B53EC7A
:1045E000112BFCF7E2F841EC100B53EC102B9DED76
:1045F000100B51EC100BFBF7AAFE9DED080B41ECE4
:104600001C0B53EC102B9DED100B51EC100BFBF71A
:104610009EFE53EC1B2BFCF7C8F853EC1C2BFCF74D
:10462000C1F853EC1D2BFBF792FE41EC1C0B53EC35
:104630001A2B51EC1A0BFBF78AFE41EC1B0B9A4824
:104640000621B0EE4B0AF0EE6B0A784400F0E0FA77
:10465000B0EE401AF0EE601AB0EE41DAF0EE61DA38
:1046600053EC1B2B51EC1B0BFBF771FE53EC1D2B7A
:10467000FBF76DFE9DED100B41EC1B0B53EC1A2B61
:1046800051EC100BFBF7EDFF53EC1C2BFBF75FFE1F
:1046900053EC1B2BFBF7E5FF9DED100B41EC1B0BC7
:1046A00053EC102B51EC100BFBF751FE41EC1D0BA2
:1046B0009FED7FEB53EC1E2BFBF7D3FF53EC1B2B33
:1046C000FBF7CFFF0890CDE908519DED080B53ECA7
:1046D0001E2B51EC100BFCF765F853EC1D2BFCF76F
:1046E00061F853EC1B2BFCF760F89DED080B41ECD7
:1046F0001D0B53EC102B9DED100B51EC100BFBF729
:1047000026FE41EC1B0B53EC1A2B51EC1D0BFBF757
:104710001EFE9DED080B41EC1A0B53EC102B51ECD7
:104720001C0BFBF714FE53EC1A2BFBF79AFF41EC22
:104730001A0B51EC1B0B53EC1A2BFBF792FF0C904E
:10474000CDE90C519DED0C0B53EC1B2B51EC100BD8
:10475000FCF728F853EC1A2BFCF727F841EC1B0B5D
:104760009FED550B53EC102B9DED0C0B51EC100BEA
:10477000FBF7EDFD41EC1A0B9FED510B51EC1B0BC0
:1047800053EC102BFBF7E3FD41EC1B0B9FED4E0BA5
:1047900053EC102B9DED0C0B51EC100BFBF7D7FDE0
:1047A00053EC1B2BFBF75DFF41EC100B48487844A2
:1047B00000EBC40090ED001B51EC100B53EC112BDF
:1047C000FBF74FFF41EC1B0B3846FBF732FECDE900
:1047D000080153EC1B2B51EC1A0BFBF742FF41EC89
:1047E000100B3C48784400EBC40090ED00CB51EC3A
:1047F000100B53EC1C2BFBF734FF9DED081B53EC07
:10480000112BFBF72EFF0690CDE906519DED080B0D
:1048100053EC102B9DED060B51EC100BFBF7C2FF78
:1048200053EC1C2BFBF7BEFF53EC1A2BFBF7BAFF24
:1048300053EC1B2BFBF7B9FF41EC100B9DED261B36
:1048400053EC102B8DED001B00959DED260B51ECCC
:10485000100BFBF77CFD9DED000B41EC1A0B53ECAC
:10486000102B9DED260B51EC100BFBF79BFF9DEDE4
:10487000061B53EC112B2FE0000000604715F73F9B
:10488000FE822B654715F73F44DF5DF80BAE543EC3
:1048900000000000000040438E9803007AB60B0031
:1048A0003A3B0000683B0000723A00000000000044
:1048B0000000000000000840000000E009C7EE3FD3
:1048C000FD033ADC09C7EE3FF5015B14E02F3EBE65
:1048D000FE380000B8380000FBF739FD53EC1A2B06
:1048E000FBF7BFFE9DED060B41EC1A0B53EC102BB2
:1048F0009DED000B51EC100BFBF729FDCDE90C01F0
:104900009DED0C0B51EC1A0B53EC102BFBF7A9FE91
:10491000CDE902010C46AA498C422FDB611A0843FB
:1049200018D19DED0C0B53EC102B9DED020B51ECAF
:10493000100BFBF737FF41EC1B0B9FEDA30B51EC6A
:104940001A0B53EC102BFBF78CFE53EC1B2BFBF7D5
:10495000A1FD2DD2022000F03BFA00F009FA10EE82
:10496000901A18EE900A8DED020B8DED008B61F31D
:104970001E0003909DED020BFFF7BEBB944A24F08E
:104980000041914214D39349214408437FF4EFAC92
:104990009DED0C0B53EC102B9DED020B51EC100B0D
:1049A000FBF700FF53EC1A2BFBF774FD7FF6DFAC2F
:1049B00024F000408849894A002601EB20518242B8
:1049C0002BDA481C4FF4801121FA00F02044844A6D
:1049D000C0F30A517A44A1F2FF3192ED000B814AF3
:1049E0008DED080BCA4020EA0202C0F3130040F428
:1049F0008010C1F1140120FA01F60992002CB8BF11
:104A000076429DED080B53EC102B9DED0C0B51ECF9
:104A1000100BFBF7C7FECDE90C019DED0C0B51EC23
:104A20001A0B53EC102BFBF71CFE9FED6F0B08903D
:104A3000CDE9085153EC102B9DED080B51EC100BF8
:104A4000FBF785FC41EC1B0B9FED690B53EC102B26
:104A50009DED080B51EC100BFBF779FC9DED0C0B59
:104A600041EC1C0B53EC102B9DED080B51EC100B83
:104A7000FBF798FE53EC1A2BFBF797FE9FED5E1B9E
:104A800053EC112BFBF763FC53EC1C2BFBF7E9FDFC
:104A900041EC1A0B51EC1B0B53EC1A2BFBF7E1FD0D
:104AA000CDE902019DED020B53EC1B2B51EC100BD9
:104AB000FBF778FE53EC1A2BFBF777FE9DED020B0C
:104AC00041EC1A0B53EC102B51EC100BFBF73FFC95
:104AD000CDE908014A489DED080B0521784400F016
:104AE00097F89DED081B51EC100B53EC112BFBF7C5
:104AF0002EFC9DED021B53EC112BFBF756FECDE96E
:104B000006019DED020B53EC1A2B51EC100BFBF739
:104B10001EFC53EC1A2BFBF7A4FD9FED3B0B41EC65
:104B20001A0B53EC102B9DED060B51EC100BFBF701
:104B300039FE9DED060B41EC1B0B53EC102B9DED4C
:104B4000020B51EC100BFBF702FC53EC1B2BFBF799
:104B50002FFE53EC1A2BFBF725FE9DED021B53ECA9
:104B6000112BFBF71FFE53EC192BFBF71EFECDE9B3
:104B7000020101EB065001150029C8BF039015DCA6
:104B80009DED020B324651EC100BFBF780FEFFF758
:104B9000ECF9042808BF00F0FBF832469DED020B4B
:104BA00051EC100BFBF773FECDE902019DED020BFA
:104BB00051EC180B53EC102BFBF7C9FBFFF73ABB7A
:104BC0000000904000000000FE822B654715973CD6
:104BD00000CC904000346F3F01FCFFFF0000E03F3D
:104BE00040370000FFFF0F0000000000432EE63FAB
:104BF000396CA80C615C20BEEF39FAFE422EE63F0C
:104C0000103600000000000000000000000000401E
:104C100070B504462DED028B4D1E00EBC500B0EEC5
:104C2000408AF0EE608A90ED000B35F0060017D058
:104C300053EC182B51EC100BFBF789FB41EC100BDC
:104C40006D1E04EBC50090ED001B51EC100B53ECF6
:104C5000112BFBF706FD41EC100B35F00600E7D1F8
:104C6000022D36D0042D1CD0062D1CBFBDEC028BAE
:104C700070BD53EC182B51EC100BFBF768FB94ED57
:104C80000A1B53EC112BFBF7ECFC53EC182BFBF736
:104C90005EFB94ED081B53EC112BFBF7E2FC41EC9F
:104CA000100B53EC182B51EC100BFBF750FB94ED51
:104CB000061B53EC112BFBF7D4FC53EC182BFBF722
:104CC00046FB94ED040B53EC102BFBF7CAFC41ECB4
:104CD000100B53EC182B51EC100BFBF738FB94ED39
:104CE000021B53EC112BFBF7BCFC53EC182BFBF70E
:104CF0002EFB94ED001B53EC112BFBF7B2FCBDEC2B
:104D0000028B41EC100B70BD9FED070B10B553ECFF
:104D1000102B9FED070B51EC100BFBF749FD41ECFD
:104D2000100B10BD0000000000000000000000009B
:104D3000000000000000F03F10B553EC112B51ECC7
:104D4000100BFBF78EFC41EC100B10BD00000000B7
:104D50009FED050B10B553EC102B51EC100BFBF72E
:104D600027FD41EC100B10BD00000000000000000A
:104D70009FED050B10B553EC102B51EC100BFBF70E
:104D8000E6FA41EC100B10BD0000000000000070BE
:104D90009FED050B10B553EC102B51EC100BFBF7EE
:104DA000D6FA41EC100B10BD00000000000000100E
:104DB00002E008C8121F08C1002AFAD170477047E4
:104DC000002001E001C1121F002AFBD17047000042
:104DD0000149086070470000F800002010B5124833
:104DE000FBF70CFE1148FBF735FE02210E48FBF7DE
:104DF000CEFE02210D48FBF7CAFE64220C490D4885
:104E0000FEF718F80C489FED0D0AD0ED000A0C488B
:104E100000F0E4FABDE8104040F2E73311220949FE
:104E20000948FEF711B80000500300207803002065
:104E30001F450020CC040020C40000200AD7A33C5A
:104E40009C470020FC4400201005002010B50D48B0
:104E500002F038F90B489FED0E0ADFED0B2A446D86
:104E6000B6EE002AA446BDE81040DFED081AB0EE09
:104E7000401A0A2344F250624FF48041DFED050AE4
:104E800060470000904C00200AD7233C9A99E940E3
:104E90000000000000007A4607494FF080400A7C7D
:104EA000012A01D1497C19B144F620614163704760
:104EB00042F21071FAE700003043002010B50021E3
:104EC0000348FDF70DFD44F620604106486310BD20
:104ED000F803002000F00EB9F0B513460C46054665
:104EE00000F0EEF8601BC11817486619F718B0F902
:104EF00000204FF42570514391FBF0F1574397FB8D
:104F0000F0F72C1B1C4400EE101A544394FBF0F4F1
:104F1000B8EEC00A0D499B1B534381ED000A00EE19
:104F2000107A93FBF0F0B8EEC00A81ED010A00EEB2
:104F3000104AB8EEC00A81ED020A00EE100AB8EE7F
:104F4000C00A81ED030AF0BDC8000020844500209E
:104F50002DE9F047224E00242DED088B41F28838D0
:104F60004FF4804906F5DC779FED1E8ADFED1E8A3F
:104F70009FED1E9A9FED1EBADFED1E9ADFED1EAA71
:104F80009FED1EAA04EB840000EBC40006EBC005F5
:104F9000284602F097F82846B0EE4B0A6D6DF0EE09
:104FA000482AB0EE682AF0EE491AB0EE401A0523FE
:104FB00042464946F0EE690AA84704EB840007EB35
:104FC0008000B0EE6A1AF0EE4A0AB0EE480A02F02B
:104FD00003FB641C042CD5DBBDEC088BBDE8F0871B
:104FE000944500200AD7233C9A99593F9A99E94061
:104FF000000000000000FA45000025C40000254420
:1050000070B52A4DDFED2A0A9FED2A0A688A2A4CDC
:10501000C10702D0C4ED020A01E084ED020A9FED4F
:10502000271A810702D584ED031A01E084ED030AF3
:10503000010702D5C4ED010A01E084ED010A410730
:1050400002D584ED001A01E084ED000A8107D4EC5A
:10505000020A70EE810AC4ED040AD4ED020A94ED4E
:10506000031A70EE810AC4ED050A01D184ED050A28
:1050700010F00C0F02D094ED040A01E084ED040A54
:105080000D48183002F060FA0B4894ED050A2C30F8
:1050900002F05AFAB5F90A00BDE8704000EE100AB5
:1050A0000548B8EEC00A683000F070B930430020FF
:1050B000000025440000000034470020000025C403
:1050C0000A480B49027C407C012A01D022B105E04C
:1050D00020B941F2883003E0012803D040F6B8300F
:1050E000088070474FF47A70FAE7000030430020E0
:1050F000C80000202DE9F0472DED028B82B0FFF7AC
:105100007FFF514E514D307A02287CD0DFF840A10C
:10511000002405F50278B2EE048A05F5DC77A5F1E6
:10512000100900BFB6F90000D8ED010A00EE100A20
:10513000B8EEC00A00EE880ABDEEC00A10EE100AF2
:1051400002B2B6F9060000EE100AF8EEC00A97EDBA
:10515000060A30EE800ABDEEC00A10EE100A01B257
:10516000B6F9040000EE100AF8EEC00A97ED010A45
:1051700030EE800ABDEEC00A10EE100A00B2FFF752
:10518000ABFE09EB8400D0ED000A0AEB4410B0F945
:10519000020000EE100A04EB840000EBC40005EBF3
:1051A000C000B8EEC00A816D8847641C042CB9DBCE
:1051B00095ED2A0ABDEEC00A10EE100A00B200906A
:1051C00095ED100ABDEEC00A10EE100A03B2214898
:1051D00090ED2A0ABDEEC00A10EE101A90ED100AEA
:1051E0000AB2BDEEC00A10EE100A01B21A48FEF76C
:1051F000ADFA0020009095ED5E0ABDEEC00A10EEFB
:10520000100A02B200E00FE095ED440A0023BDEE63
:10521000C00A10EE100A01B20F48FEF7BDFA02B044
:10522000BDEC028BBDE8F0879FED0C0A002000BFAB
:1052300000EB800101EBC00105EBC101401C81EDD9
:10524000100A0428F4DBB3E7304300209445002023
:1052500048430020B0470020500300200000000019
:1052600038B53748374C384990F90C30A06B884234
:1052700002DD9FED360A07E03549884202D894EDF9
:105280000E0A03E09FED330A84ED0E0AB0EEC00A69
:1052900010EE100A30490025884232D02F48294AA2
:1052A000B0F914102E48926DB0F9020081B14FF49C
:1052B000FA5311FB03F14FF4257391FBF3F100EE68
:1052C000101AF8EEC00A00EE100AB8EEC00A15E097
:1052D000244923B1012B04D0022B07D104E0CD6077
:1052E00004E04FF4FA5300E01F4BCB6000EE100ACD
:1052F000D1ED030AB8EEC00AF8EEE00A1148904773
:1053000005E0032B19D09FED190A84ED100A0095D2
:1053100094ED100A0023BDEEC00A10EE100A02B28E
:105320000848D03890ED100ABDEEC00A10EE100A01
:1053300001B20F48FEF77CFA38BD01F0E5FDE6E763
:105340000D450020904C00200000FA4500007A46F0
:105350000000FAC500007AC600007A4630430020FB
:10536000A8440020E8000020C0E0FFFF000000008B
:105370007803002082B0CDE9000121F000400190C7
:105380009DED000B02B051EC100B704710B5446856
:1053900010EE103A046103608168C26800EE101AD2
:1053A00000EE902A30EE201A00EE101AC0EE010A2C
:1053B00000EE104A20EE801A00EE901A00EE102A3D
:1053C00070EE801A00EE102AC0EE210A00EE103AAC
:1053D00000EE801A11EE101A416010BD10EE101A86
:1053E000C16010EE901A8160002101604160704739
:1053F0002DE9F05FDFF8248100252DED048B08F105
:10540000D0099FED479ADFED479A9FED478ADFF875
:105410001CA14FF48046DFED468A00BF05EB8500F6
:1054200000EBC50408EBC400074601F04BFE09EB96
:10543000C400044601F046FE3846D7F854C0F0EEEA
:10544000482AB0EE482AF1EE041AB0EE481A0023BA
:10545000574652463146F0EE680AB0EE480AE04739
:10546000D4F854C02046F7EE002AB0EE492AF0EEF8
:10547000691AB0EE481A0A233A463146F0EE680A35
:10548000B0EE480AE0476D1C022DC7DB29492A48C7
:10549000DFF8A8804A690260496B0025BA4608F126
:1054A000D0094FF4967B416005EB850000EBC50405
:1054B00008EBC407384601F005FE09EBC40420469A
:1054C00001F000FED7F854C03846F0EE482AB0EE9E
:1054D000482AF1EE041AB0EE481A5B46184A3146E3
:1054E000F0EE680AB0EE480AE0472046646DF7EE39
:1054F000002AB0EE482AF0EE0C1AB0EE481A322319
:1055000052463146F0EE680AB0EE480AA0476D1CDC
:10551000022DC9DBBDEC048BBDE8F09FB047002035
:10552000CDCCCC3D9A99E9400000000020A10700B5
:105530000000FA45C8430020D8000020204A00207F
:10554000404B4C0030B504884481418881804369D8
:105550008361118849BA018055880C1B6DBA45805A
:105560009588B4F5805F6DBAC58092790281026931
:1055700001DD521E03E014F5805F01DA521C026166
:1055800001EB42318289891A4161591AC16130BDEA
:105590002DE9F04F85B01021FE48FCF725FADFF821
:1055A000F89389F8010002F025F8DFF8F0A3FD4830
:1055B000FB4E9AF804100490D030039077420024F8
:1055C000F9484FF0010809F114050290002977D03D
:1055D00099F8000028B9FCF719FAC9F8080089F809
:1055E0000080FCF713FAD9F8081088420ED0FCF7B7
:1055F0000DFAD9F80810401AC82807D29AF9030002
:1056000001285DD002285BD101226DE0FCF7FEF994
:10561000D9F80810401AC82817D9FCF7F7F9D9F8B3
:105620000810401AB0F52F7F0FD22868DD4B3044A8
:10563000CDE90004DC49683B03F1D0022039DB48A6
:1056400001F088FB6868384431E0FCF7DFF9D9F8ED
:105650000810401AB0F52F7F0BD9FCF7D7F9D9F80D
:105660000810401AB0F5617F03D201222021C948F9
:105670003CE0FCF7CBF9D9F80810401AB0F5617F8F
:105680001FD9FCF7C3F9D9F80810411A40F24C4071
:10569000814216D22868C34BCDE90004C249683B59
:1056A00003F1D0022039C14801F054FB6868CDE90C
:1056B00000040DF1080ABD489AE80E0001F04AFB0B
:1056C00046E0FCF7A3F9D9F808104FF4C86B411A6B
:1056D00040F24C4081420CD9FCF798F9D9F80810F7
:1056E000401A584505D200220121B148FCF789F93A
:1056F0002EE0FCF78BF9D9F80810401A584510D95C
:10570000FCF784F9D9F80810411A40F68C20814240
:1057100007D2002220219F48FCF773F98AF80F80F6
:1057200016E0FCF773F9D9F80810411A40F68C20FE
:1057300081420DD9FCF76AF9D9F80820801AB0F532
:105740002F6F05D28AF80F408AF8044089F800408C
:1057500092484FF4FA7A40F2DC5B4079002839D065
:1057600099F8000028B9FCF751F9C9F8080089F840
:105770000080FCF74BF9D9F80810884216D0FCF7E6
:1057800045F9D9F80810401A50450FD22868854BC2
:105790003044CDE900048449683B03F1D00220394C
:1057A000824801F0D7FA6868384459E0FCF72EF9CE
:1057B000D9F80810401A50450DD9FCF727F9D9F847
:1057C0000810401AB0F57A7F05D2012220217148D5
:1057D000FCF717F9A8E0FCF719F9D9F80810401AF6
:1057E000B0F57A7F0BD9FCF711F9D9F80810411AF6
:1057F00040F24C40814202D241F2100111E0FCF72C
:1058000005F9D9F80810411A40F24C4081420BD9F1
:10581000FCF7FCF8D9F80810411A594504D24FF4A6
:105820008151644841827FE0FCF7F0F8D9F8081014
:10583000411A59451ED9FCF7E9F8D9F80810401A61
:10584000B0F5FA6F16D22868564BCDE900045649D8
:10585000683B03F1D0022039544801F07BFA6868B4
:10586000CDE900040DF1080C50489CE80E0001F051
:1058700071FA59E0FCF7CAF8D9F80810401AB0F5E7
:10588000FA6F0ED9FCF7C2F8D9F80810411A40F6A1
:10589000B830814205D2002220213E48FCF7B1F801
:1058A00027E0FCF7B3F8D9F80810411A40F6B830F1
:1058B00081420CD9FCF7AAF8D9F80810411A41F234
:1058C0003010814203D235490220C8732CE0FCF726
:1058D0009DF8D9F80810411A41F2301081420CD9D4
:1058E000FCF794F8D9F80810411A41F2D4708142BB
:1058F00003D22A4981F80F8016E0FCF787F8D9F81F
:105900000810411A41F2D47081420DD9FCF77EF89B
:10591000D9F80820801A41F63802904204D21F4874
:10592000C473447189F800401C48807980B399F8A9
:10593000000028B9FCF76AF8C9F8080089F8008067
:10594000FCF764F8D9F80810884211D0FCF75EF82B
:10595000D9F80810401AC8280AD2104890F9030054
:10596000012815D0022813D101221146104844E025
:10597000FCF74CF8D9F80810401AC8282AD9FCF7C7
:1059800045F8D9F80810401AB0F52F7F22D213E05D
:105990007CE0000000100240CC0000200D450020FB
:1059A00074C9FEFF884A0020684400207803002064
:1059B00000140240304300202868FF4B3044CDE9FA
:1059C000000403F1D002FD49FD4801F0C3F9686805
:1059D000384437E0FCF71AF8D9F80810401AB0F547
:1059E0002F7F0DD9FCF712F8D9F80810401AB0F53E
:1059F000966F05D201222021F248FCF702F845E01B
:105A0000FCF704F8D9F80810401AB0F5966F23D9BE
:105A1000FBF7FCFFD9F80810411A40F2A46081425C
:105A20001AD22868E44BA0F51B404638CDE90004A3
:105A300003F1D002E149E24801F08CF9686849F6C7
:105A400046310844CDE900040DF1080CDC489CE81F
:105A50000E0001F07FF919E0FBF7D8FFD9F8081024
:105A6000411A40F2A460814210D9FBF7CFFFD9F868
:105A70000810401AB0F5E16F08D200220121D24887
:105A8000FBF7BFFFD148847189F80040CF48C07947
:105A9000012858D199F8000028B9FBF7B7FFC9F8D9
:105AA000080089F80080FBF7B1FFD9F80810884298
:105AB0000AD0FBF7ABFFD9F80810411A594503D2B9
:105AC000C2490220C8733EE0FBF7A0FFD9F80810D6
:105AD000411A59450FD9FBF799FFD9F80810401A18
